:100000000C9434000C943E000C943E000C943E0082
:100010000C943E000C943E000C943E000C943E0068
:100020000C943E000C943E000C943E000C94400056
:100030000C943E000C943E000C943E000C943E0048
:100040000C943E000C943E000C943E000C943E0038
:100050000C943E000C943E000C943E000C943E0028
:100060000C943E000C943E0011241FBECFEFD8E04C
:10007000DEBFCDBF0E9463000C9487000C9400008B
:100080001F920F920FB60F9211248F938BB180584D
:100090008BB98F910F900FBE0F901F901895809184
:1000A0007A00806480937A0080917A0086FDFCCF8C
:1000B0002091780090917900892F90E0982F8827DF
:1000C000820F911D089580EC8AB9109280008CE017
:1000D0008093810081E19AE7909389008093880062
:1000E00082E080936F0083E884BD85E085BD17BC06
:1000F00080E480937C0087E880937A0078940E9463
:100100004F00969587959695879587BDF8CFF8947B
:02011000FFCF1F
:00000001FF
